:1000000000308A0019280000223084008313000881
:10001000031918280130F800F701F70B0D28F80B29
:100020000C284A30F700F70B13281628800B0A28F3
:100030000800FF30A00083161F149F141F159F1186
:1000400083131F308305091283129412A012200813
:1000500083168700831220162008831687008312D8
:10006000A01120088316870001308312940000300D
:100070008316940083129001F800920000308316DA
:1000800092001F149F141F159F1183121F10F03030
:1000900097059D0500308316860083128601023085
:1000A000A100FA30A2000420A10B512801308606DD
:1000B0000230A100FA30A2000420A10B5A2802301D
:1000C0008606A100FA30A2000420A10B62280430A9
:1000D00086060230A100FA30A2000420A10B6B2892
:1000E000083086060230A100FA30A2000420A10BDD
:1000F0007428103086060230A100FA30A2000420D5
:10010000A10B7D28203086060230A100FA30A20023
:100110000420A10B8628403086060230A100FA3068
:10012000A2000420A10B8F28803086060230A10097
:0E013000FA30A2000420A10B98284F2863008B
:02400E00713F00
:00000001FF
;PIC16F877
;CRC=1EE0  CREATED="15-May-18 13:42"
