:1000000000308A003C2800000A108A100A1182077A
:100010003F3406345B344F3466346D347D340734FA
:100020007F346F342808F801270203181A2827089C
:10003000F7002628F7010830A900A70DF70D2808BA
:1000400077020318F700F80DA90B1D2808002530CA
:1000500084008313000803193B280130F800F701DE
:10006000F70B3028F80B2F284A30F700F70B36280B
:100070003928800B2D280800831603170908C0397A
:10008000890003131F129F12003003178800831288
:1000900087018801890183131F308305003083168F
:1000A000031386008500880183128801A101A20143
:1000B0002108A7000A30A80012207808A300210810
:1000C000A7000A30A80012207708A4002408042002
:1000D000A500860085140530A5002720851023087B
:1000E0000420A500860005140530A5002720051072
:1000F0002208633C0318872801302107A600A700C7
:100100003D30A80012207708A100A2018828A20A89
:040110005828630008
:04400E00E12FFF3F60
:00000001FF
;PIC16F887
;CRC=2242  CREATED="14-May-18 15:06"
