:1000000000308A00402800000A108A100A11820776
:100010003F3406345B344F3466346D347D340734FA
:100020007F346F342330840083130008031926289B
:100030000130F800F701F70B1B28F80B1A284A309B
:10004000F700F70B21282428800B18288A110A12A0
:1000500068282508F8012402031831282408F7002D
:100060003D28F7010830A600A40DF70D25087702FA
:100070000318F700F80DA60B34288A110A1271280C
:10008000831603170908C039890003131F129F1232
:1000900000300317880083128701880189018313C8
:1000A0001F3083050030831603138600850005107A
:1000B000831205108316851083128514A10121086F
:1000C0000420A20086000230A200FA30A300122809
:1000D000A20B652801302107A300A4000A30A50067
:0A00E00029287708A1005F286300BB
:04400E00E12FFF3F60
:00000001FF
;PIC16F887
;CRC=99DB  CREATED="15-May-18 13:10"
